{"abi":[{"type":"function","name":"submitClaim","inputs":[{"name":"policyId","type":"bytes32","internalType":"bytes32"},{"name":"encryptedPayload","type":"bytes","internalType":"bytes"}],"outputs":[],"stateMutability":"nonpayable"},{"type":"event","name":"ClaimSubmitted","inputs":[{"name":"policyId","type":"bytes32","indexed":true,"internalType":"bytes32"},{"name":"claimant","type":"address","indexed":true,"internalType":"address"},{"name":"encryptedPayload","type":"bytes","indexed":false,"internalType":"bytes"},{"name":"timestamp","type":"uint256","indexed":false,"internalType":"uint256"}],"anonymous":false}],"bytecode":{"object":"0x608060405234801561000f575f80fd5b5061020e8061001d5f395ff3fe608060405234801561000f575f80fd5b5060043610610029575f3560e01c8063ea3c4cf41461002d575b5f80fd5b61004061003b36600461012c565b610042565b005b826100945760405162461bcd60e51b815260206004820152601f60248201527f436c61696d526571756573743a20696e76616c696420706f6c6963792049440060448201526064015b60405180910390fd5b806100e15760405162461bcd60e51b815260206004820152601d60248201527f436c61696d526571756573743a20696e76616c6964207061796c6f6164000000604482015260640161008b565b336001600160a01b0316837f98b0517d6690a4094b2f2705a21ab8ecfae6863f6a5537402590b3dc3b4a78e384844260405161011f939291906101a1565b60405180910390a3505050565b5f805f6040848603121561013e575f80fd5b83359250602084013567ffffffffffffffff8082111561015c575f80fd5b818601915086601f83011261016f575f80fd5b81358181111561017d575f80fd5b87602082850101111561018e575f80fd5b6020830194508093505050509250925092565b60408152826040820152828460608301375f606084830101525f6060601f19601f860116830101905082602083015294935050505056fea2646970667358221220c7792248c6bcbeae229af78c68bfc61572927ee7292984fbe9467daf5faca32764736f6c63430008140033","linkReferences":{}},"methodIdentifiers":{"submitClaim(bytes32,bytes)":"ea3c4cf4"},"id":22}